{
  "_format": "hh-sol-artifact-1",
  "contractName": "TokenConfigRegistry",
  "sourceName": "src/TokenConfigRegistry.sol",
  "abi": [
    {
      "inputs": [],
      "stateMutability": "nonpayable",
      "type": "constructor"
    },
    {
      "inputs": [
        {
          "internalType": "address",
          "name": "owner",
          "type": "address"
        }
      ],
      "name": "OwnableInvalidOwner",
      "type": "error"
    },
    {
      "inputs": [
        {
          "internalType": "address",
          "name": "account",
          "type": "address"
        }
      ],
      "name": "OwnableUnauthorizedAccount",
      "type": "error"
    },
    {
      "anonymous": false,
      "inputs": [
        {
          "indexed": true,
          "internalType": "address",
          "name": "previousOwner",
          "type": "address"
        },
        {
          "indexed": true,
          "internalType": "address",
          "name": "newOwner",
          "type": "address"
        }
      ],
      "name": "OwnershipTransferred",
      "type": "event"
    },
    {
      "anonymous": false,
      "inputs": [
        {
          "indexed": false,
          "internalType": "string",
          "name": "symbol",
          "type": "string"
        }
      ],
      "name": "TokenActivated",
      "type": "event"
    },
    {
      "anonymous": false,
      "inputs": [
        {
          "indexed": false,
          "internalType": "string",
          "name": "symbol",
          "type": "string"
        }
      ],
      "name": "TokenDeactivated",
      "type": "event"
    },
    {
      "anonymous": false,
      "inputs": [
        {
          "indexed": false,
          "internalType": "string",
          "name": "symbol",
          "type": "string"
        },
        {
          "indexed": false,
          "internalType": "address",
          "name": "tokenAddress",
          "type": "address"
        },
        {
          "indexed": false,
          "internalType": "uint8",
          "name": "decimals",
          "type": "uint8"
        }
      ],
      "name": "TokenSet",
      "type": "event"
    },
    {
      "inputs": [
        {
          "internalType": "string",
          "name": "symbol",
          "type": "string"
        }
      ],
      "name": "activateToken",
      "outputs": [],
      "stateMutability": "nonpayable",
      "type": "function"
    },
    {
      "inputs": [
        {
          "internalType": "string",
          "name": "symbol",
          "type": "string"
        }
      ],
      "name": "deactivateToken",
      "outputs": [],
      "stateMutability": "nonpayable",
      "type": "function"
    },
    {
      "inputs": [],
      "name": "getAllActiveTokens",
      "outputs": [
        {
          "internalType": "string[]",
          "name": "symbols",
          "type": "string[]"
        },
        {
          "internalType": "address[]",
          "name": "addresses",
          "type": "address[]"
        },
        {
          "internalType": "uint8[]",
          "name": "decimals",
          "type": "uint8[]"
        }
      ],
      "stateMutability": "view",
      "type": "function"
    },
    {
      "inputs": [
        {
          "internalType": "string",
          "name": "symbol",
          "type": "string"
        }
      ],
      "name": "getToken",
      "outputs": [
        {
          "internalType": "address",
          "name": "tokenAddress",
          "type": "address"
        },
        {
          "internalType": "uint8",
          "name": "decimals",
          "type": "uint8"
        },
        {
          "internalType": "bool",
          "name": "isActive",
          "type": "bool"
        }
      ],
      "stateMutability": "view",
      "type": "function"
    },
    {
      "inputs": [],
      "name": "owner",
      "outputs": [
        {
          "internalType": "address",
          "name": "",
          "type": "address"
        }
      ],
      "stateMutability": "view",
      "type": "function"
    },
    {
      "inputs": [],
      "name": "renounceOwnership",
      "outputs": [],
      "stateMutability": "nonpayable",
      "type": "function"
    },
    {
      "inputs": [
        {
          "internalType": "string",
          "name": "symbol",
          "type": "string"
        },
        {
          "internalType": "address",
          "name": "tokenAddress",
          "type": "address"
        },
        {
          "internalType": "uint8",
          "name": "decimals",
          "type": "uint8"
        }
      ],
      "name": "setToken",
      "outputs": [],
      "stateMutability": "nonpayable",
      "type": "function"
    },
    {
      "inputs": [
        {
          "internalType": "address",
          "name": "newOwner",
          "type": "address"
        }
      ],
      "name": "transferOwnership",
      "outputs": [],
      "stateMutability": "nonpayable",
      "type": "function"
    }
  ],
  "bytecode": "0x60806040523480156200001157600080fd5b5033600073ffffffffffffffffffffffffffffffffffffffff168173ffffffffffffffffffffffffffffffffffffffff1603620000885760006040517f1e4fbdf70000000000000000000000000000000000000000000000000000000081526004016200007f9190620001a9565b60405180910390fd5b6200009981620000a060201b60201c565b50620001c6565b60008060009054906101000a900473ffffffffffffffffffffffffffffffffffffffff169050816000806101000a81548173ffffffffffffffffffffffffffffffffffffffff021916908373ffffffffffffffffffffffffffffffffffffffff1602179055508173ffffffffffffffffffffffffffffffffffffffff168173ffffffffffffffffffffffffffffffffffffffff167f8be0079c531659141344cd1fd0a4f28419497f9722a3daafe3b4186f6b6457e060405160405180910390a35050565b600073ffffffffffffffffffffffffffffffffffffffff82169050919050565b6000620001918262000164565b9050919050565b620001a38162000184565b82525050565b6000602082019050620001c0600083018462000198565b92915050565b6118af80620001d66000396000f3fe608060405234801561001057600080fd5b50600436106100885760003560e01c80638da5cb5b1161005b5780638da5cb5b146100ef5780639015b3601461010d578063c1733f6814610129578063f2fde38b1461015b57610088565b80631e2659fc1461008d57806342fbbf4f146100a9578063715018a6146100c957806387ddb2ca146100d3575b600080fd5b6100a760048036038101906100a29190610db4565b610177565b005b6100b16103c4565b6040516100c0939291906110f6565b60405180910390f35b6100d1610796565b005b6100ed60048036038101906100e89190611142565b6107aa565b005b6100f76108ab565b604051610104919061119e565b60405180910390f35b61012760048036038101906101229190611142565b6108d4565b005b610143600480360381019061013e9190611142565b6109d6565b604051610152939291906111e3565b60405180910390f35b6101756004803603810190610170919061121a565b610ad5565b005b61017f610b5b565b600073ffffffffffffffffffffffffffffffffffffffff168273ffffffffffffffffffffffffffffffffffffffff16036101ee576040517f08c379a00000000000000000000000000000000000000000000000000000000081526004016101e5906112a4565b60405180910390fd5b60008484604051602001610203929190611303565b6040516020818303038152906040528051906020012090506003600082815260200190815260200160002060009054906101000a900460ff166102ab57600285859091806001815401808255809150506001900390600052602060002001600090919290919290919290919250918261027d92919061156c565b5060016003600083815260200190815260200160002060006101000a81548160ff0219169083151502179055505b60405180606001604052808473ffffffffffffffffffffffffffffffffffffffff1681526020018360ff168152602001600115158152506001600083815260200190815260200160002060008201518160000160006101000a81548173ffffffffffffffffffffffffffffffffffffffff021916908373ffffffffffffffffffffffffffffffffffffffff16021790555060208201518160000160146101000a81548160ff021916908360ff16021790555060408201518160000160156101000a81548160ff0219169083151502179055509050507fb204c6f6a87bea81afb904f960d2f1a0eb80a9293253302b677e0a634442fc47858585856040516103b59493929190611669565b60405180910390a15050505050565b60608060606000805b60028054905081101561046e576000600282815481106103f0576103ef6116a9565b5b9060005260206000200160405160200161040a919061175b565b6040516020818303038152906040528051906020012090506001600082815260200190815260200160002060000160159054906101000a900460ff161561045a578280610456906117a1565b9350505b508080610466906117a1565b9150506103cd565b508067ffffffffffffffff81111561048957610488611327565b5b6040519080825280602002602001820160405280156104bc57816020015b60608152602001906001900390816104a75790505b5093508067ffffffffffffffff8111156104d9576104d8611327565b5b6040519080825280602002602001820160405280156105075781602001602082028036833780820191505090505b5092508067ffffffffffffffff81111561052457610523611327565b5b6040519080825280602002602001820160405280156105525781602001602082028036833780820191505090505b5091506000805b60028054905081101561078e5760006002828154811061057c5761057b6116a9565b5b90600052602060002001604051602001610596919061175b565b6040516020818303038152906040528051906020012090506001600082815260200190815260200160002060000160159054906101000a900460ff161561077a57600282815481106105eb576105ea6116a9565b5b90600052602060002001805461060090611385565b80601f016020809104026020016040519081016040528092919081815260200182805461062c90611385565b80156106795780601f1061064e57610100808354040283529160200191610679565b820191906000526020600020905b81548152906001019060200180831161065c57829003601f168201915b5050505050878481518110610691576106906116a9565b5b60200260200101819052506001600082815260200190815260200160002060000160009054906101000a900473ffffffffffffffffffffffffffffffffffffffff168684815181106106e6576106e56116a9565b5b602002602001019073ffffffffffffffffffffffffffffffffffffffff16908173ffffffffffffffffffffffffffffffffffffffff16815250506001600082815260200190815260200160002060000160149054906101000a900460ff16858481518110610757576107566116a9565b5b602002602001019060ff16908160ff16815250508280610776906117a1565b9350505b508080610786906117a1565b915050610559565b505050909192565b61079e610b5b565b6107a86000610be2565b565b6107b2610b5b565b600082826040516020016107c7929190611303565b6040516020818303038152906040528051906020012090506003600082815260200190815260200160002060009054906101000a900460ff1661083f576040517f08c379a000000000000000000000000000000000000000000000000000000000815260040161083690611835565b60405180910390fd5b600180600083815260200190815260200160002060000160156101000a81548160ff0219169083151502179055507f170cb721414ee32fcd32a207533a70b6495fc1541d11b2a3e24a5f9d736981fe838360405161089e929190611855565b60405180910390a1505050565b60008060009054906101000a900473ffffffffffffffffffffffffffffffffffffffff16905090565b6108dc610b5b565b600082826040516020016108f1929190611303565b6040516020818303038152906040528051906020012090506003600082815260200190815260200160002060009054906101000a900460ff16610969576040517f08c379a000000000000000000000000000000000000000000000000000000000815260040161096090611835565b60405180910390fd5b60006001600083815260200190815260200160002060000160156101000a81548160ff0219169083151502179055507f838fa6e12d3e4c7d026adee466e40f442c8ebdbe99ebedab81af76ec889e42f483836040516109c9929190611855565b60405180910390a1505050565b60008060008085856040516020016109ef929190611303565b6040516020818303038152906040528051906020012090506000600160008381526020019081526020016000206040518060600160405290816000820160009054906101000a900473ffffffffffffffffffffffffffffffffffffffff1673ffffffffffffffffffffffffffffffffffffffff1673ffffffffffffffffffffffffffffffffffffffff1681526020016000820160149054906101000a900460ff1660ff1660ff1681526020016000820160159054906101000a900460ff161515151581525050905080600001518160200151826040015194509450945050509250925092565b610add610b5b565b600073ffffffffffffffffffffffffffffffffffffffff168173ffffffffffffffffffffffffffffffffffffffff1603610b4f5760006040517f1e4fbdf7000000000000000000000000000000000000000000000000000000008152600401610b46919061119e565b60405180910390fd5b610b5881610be2565b50565b610b63610ca6565b73ffffffffffffffffffffffffffffffffffffffff16610b816108ab565b73ffffffffffffffffffffffffffffffffffffffff1614610be057610ba4610ca6565b6040517f118cdaa7000000000000000000000000000000000000000000000000000000008152600401610bd7919061119e565b60405180910390fd5b565b60008060009054906101000a900473ffffffffffffffffffffffffffffffffffffffff169050816000806101000a81548173ffffffffffffffffffffffffffffffffffffffff021916908373ffffffffffffffffffffffffffffffffffffffff1602179055508173ffffffffffffffffffffffffffffffffffffffff168173ffffffffffffffffffffffffffffffffffffffff167f8be0079c531659141344cd1fd0a4f28419497f9722a3daafe3b4186f6b6457e060405160405180910390a35050565b600033905090565b600080fd5b600080fd5b600080fd5b600080fd5b600080fd5b60008083601f840112610cdd57610cdc610cb8565b5b8235905067ffffffffffffffff811115610cfa57610cf9610cbd565b5b602083019150836001820283011115610d1657610d15610cc2565b5b9250929050565b600073ffffffffffffffffffffffffffffffffffffffff82169050919050565b6000610d4882610d1d565b9050919050565b610d5881610d3d565b8114610d6357600080fd5b50565b600081359050610d7581610d4f565b92915050565b600060ff82169050919050565b610d9181610d7b565b8114610d9c57600080fd5b50565b600081359050610dae81610d88565b92915050565b60008060008060608587031215610dce57610dcd610cae565b5b600085013567ffffffffffffffff811115610dec57610deb610cb3565b5b610df887828801610cc7565b94509450506020610e0b87828801610d66565b9250506040610e1c87828801610d9f565b91505092959194509250565b600081519050919050565b600082825260208201905092915050565b6000819050602082019050919050565b600081519050919050565b600082825260208201905092915050565b60005b83811015610e8e578082015181840152602081019050610e73565b60008484015250505050565b6000601f19601f8301169050919050565b6000610eb682610e54565b610ec08185610e5f565b9350610ed0818560208601610e70565b610ed981610e9a565b840191505092915050565b6000610ef08383610eab565b905092915050565b6000602082019050919050565b6000610f1082610e28565b610f1a8185610e33565b935083602082028501610f2c85610e44565b8060005b85811015610f685784840389528151610f498582610ee4565b9450610f5483610ef8565b925060208a01995050600181019050610f30565b50829750879550505050505092915050565b600081519050919050565b600082825260208201905092915050565b6000819050602082019050919050565b610faf81610d3d565b82525050565b6000610fc18383610fa6565b60208301905092915050565b6000602082019050919050565b6000610fe582610f7a565b610fef8185610f85565b9350610ffa83610f96565b8060005b8381101561102b5781516110128882610fb5565b975061101d83610fcd565b925050600181019050610ffe565b5085935050505092915050565b600081519050919050565b600082825260208201905092915050565b6000819050602082019050919050565b61106d81610d7b565b82525050565b600061107f8383611064565b60208301905092915050565b6000602082019050919050565b60006110a382611038565b6110ad8185611043565b93506110b883611054565b8060005b838110156110e95781516110d08882611073565b97506110db8361108b565b9250506001810190506110bc565b5085935050505092915050565b600060608201905081810360008301526111108186610f05565b905081810360208301526111248185610fda565b905081810360408301526111388184611098565b9050949350505050565b6000806020838503121561115957611158610cae565b5b600083013567ffffffffffffffff81111561117757611176610cb3565b5b61118385828601610cc7565b92509250509250929050565b61119881610d3d565b82525050565b60006020820190506111b3600083018461118f565b92915050565b6111c281610d7b565b82525050565b60008115159050919050565b6111dd816111c8565b82525050565b60006060820190506111f8600083018661118f565b61120560208301856111b9565b61121260408301846111d4565b949350505050565b6000602082840312156112305761122f610cae565b5b600061123e84828501610d66565b91505092915050565b600082825260208201905092915050565b7f496e76616c696420746f6b656e20616464726573730000000000000000000000600082015250565b600061128e601583611247565b915061129982611258565b602082019050919050565b600060208201905081810360008301526112bd81611281565b9050919050565b600081905092915050565b82818337600083830152505050565b60006112ea83856112c4565b93506112f78385846112cf565b82840190509392505050565b60006113108284866112de565b91508190509392505050565b600082905092915050565b7f4e487b7100000000000000000000000000000000000000000000000000000000600052604160045260246000fd5b7f4e487b7100000000000000000000000000000000000000000000000000000000600052602260045260246000fd5b6000600282049050600182168061139d57607f821691505b6020821081036113b0576113af611356565b5b50919050565b60008190508160005260206000209050919050565b60006020601f8301049050919050565b600082821b905092915050565b6000600883026114187fffffffffffffffffffffffffffffffffffffffffffffffffffffffffffffffff826113db565b61142286836113db565b95508019841693508086168417925050509392505050565b6000819050919050565b6000819050919050565b600061146961146461145f8461143a565b611444565b61143a565b9050919050565b6000819050919050565b6114838361144e565b61149761148f82611470565b8484546113e8565b825550505050565b600090565b6114ac61149f565b6114b781848461147a565b505050565b5b818110156114db576114d06000826114a4565b6001810190506114bd565b5050565b601f821115611520576114f1816113b6565b6114fa846113cb565b81016020851015611509578190505b61151d611515856113cb565b8301826114bc565b50505b505050565b600082821c905092915050565b600061154360001984600802611525565b1980831691505092915050565b600061155c8383611532565b9150826002028217905092915050565b611576838361131c565b67ffffffffffffffff81111561158f5761158e611327565b5b6115998254611385565b6115a48282856114df565b6000601f8311600181146115d357600084156115c1578287013590505b6115cb8582611550565b865550611633565b601f1984166115e1866113b6565b60005b82811015611609578489013582556001820191506020850194506020810190506115e4565b868310156116265784890135611622601f891682611532565b8355505b6001600288020188555050505b50505050505050565b60006116488385611247565b93506116558385846112cf565b61165e83610e9a565b840190509392505050565b6000606082019050818103600083015261168481868861163c565b9050611693602083018561118f565b6116a060408301846111b9565b95945050505050565b7f4e487b7100000000000000000000000000000000000000000000000000000000600052603260045260246000fd5b600081546116e581611385565b6116ef81866112c4565b9450600182166000811461170a576001811461171f57611752565b60ff1983168652811515820286019350611752565b611728856113b6565b60005b8381101561174a5781548189015260018201915060208101905061172b565b838801955050505b50505092915050565b600061176782846116d8565b915081905092915050565b7f4e487b7100000000000000000000000000000000000000000000000000000000600052601160045260246000fd5b60006117ac8261143a565b91507fffffffffffffffffffffffffffffffffffffffffffffffffffffffffffffffff82036117de576117dd611772565b5b600182019050919050565b7f546f6b656e206e6f7420666f756e640000000000000000000000000000000000600082015250565b600061181f600f83611247565b915061182a826117e9565b602082019050919050565b6000602082019050818103600083015261184e81611812565b9050919050565b6000602082019050818103600083015261187081848661163c565b9050939250505056fea2646970667358221220796c60176030d3095c554d355349714c587881c101ef428b4d74bd83c725f3b164736f6c63430008140033",
  "linkReferences": {},
  "deployedLinkReferences": {}
}