{
  "_format": "hh-sol-artifact-1",
  "contractName": "ManagedTokenDistributor",
  "sourceName": "src/ManagedTokenDistributor.sol",
  "abi": [
    {
      "inputs": [
        {
          "internalType": "address",
          "name": "_tokenOut",
          "type": "address"
        },
        {
          "internalType": "uint256",
          "name": "_amount",
          "type": "uint256"
        },
        {
          "internalType": "address",
          "name": "_recipient",
          "type": "address"
        },
        {
          "internalType": "address",
          "name": "_owner",
          "type": "address"
        },
        {
          "internalType": "address",
          "name": "_returnWallet",
          "type": "address"
        }
      ],
      "stateMutability": "nonpayable",
      "type": "constructor"
    },
    {
      "inputs": [],
      "name": "AlreadyExecuted",
      "type": "error"
    },
    {
      "inputs": [
        {
          "internalType": "uint256",
          "name": "available",
          "type": "uint256"
        },
        {
          "internalType": "uint256",
          "name": "required",
          "type": "uint256"
        }
      ],
      "name": "InsufficientBalance",
      "type": "error"
    },
    {
      "inputs": [],
      "name": "OnlyOwner",
      "type": "error"
    },
    {
      "inputs": [],
      "name": "TransferFailed",
      "type": "error"
    },
    {
      "anonymous": false,
      "inputs": [
        {
          "indexed": true,
          "internalType": "address",
          "name": "token",
          "type": "address"
        },
        {
          "indexed": false,
          "internalType": "uint256",
          "name": "amount",
          "type": "uint256"
        },
        {
          "indexed": true,
          "internalType": "address",
          "name": "to",
          "type": "address"
        }
      ],
      "name": "ExcessReturned",
      "type": "event"
    },
    {
      "anonymous": false,
      "inputs": [
        {
          "indexed": true,
          "internalType": "address",
          "name": "token",
          "type": "address"
        },
        {
          "indexed": false,
          "internalType": "uint256",
          "name": "amount",
          "type": "uint256"
        },
        {
          "indexed": true,
          "internalType": "address",
          "name": "recipient",
          "type": "address"
        }
      ],
      "name": "Executed",
      "type": "event"
    },
    {
      "anonymous": false,
      "inputs": [
        {
          "indexed": true,
          "internalType": "address",
          "name": "token",
          "type": "address"
        },
        {
          "indexed": false,
          "internalType": "uint256",
          "name": "amount",
          "type": "uint256"
        },
        {
          "indexed": true,
          "internalType": "address",
          "name": "to",
          "type": "address"
        }
      ],
      "name": "TokensRescued",
      "type": "event"
    },
    {
      "inputs": [],
      "name": "amount",
      "outputs": [
        {
          "internalType": "uint256",
          "name": "",
          "type": "uint256"
        }
      ],
      "stateMutability": "view",
      "type": "function"
    },
    {
      "inputs": [],
      "name": "execute",
      "outputs": [],
      "stateMutability": "nonpayable",
      "type": "function"
    },
    {
      "inputs": [],
      "name": "executed",
      "outputs": [
        {
          "internalType": "bool",
          "name": "",
          "type": "bool"
        }
      ],
      "stateMutability": "view",
      "type": "function"
    },
    {
      "inputs": [],
      "name": "getConfig",
      "outputs": [
        {
          "internalType": "address",
          "name": "_tokenOut",
          "type": "address"
        },
        {
          "internalType": "uint256",
          "name": "_amount",
          "type": "uint256"
        },
        {
          "internalType": "address",
          "name": "_recipient",
          "type": "address"
        },
        {
          "internalType": "address",
          "name": "_owner",
          "type": "address"
        },
        {
          "internalType": "address",
          "name": "_returnWallet",
          "type": "address"
        },
        {
          "internalType": "bool",
          "name": "_executed",
          "type": "bool"
        }
      ],
      "stateMutability": "view",
      "type": "function"
    },
    {
      "inputs": [],
      "name": "owner",
      "outputs": [
        {
          "internalType": "address",
          "name": "",
          "type": "address"
        }
      ],
      "stateMutability": "view",
      "type": "function"
    },
    {
      "inputs": [],
      "name": "recipient",
      "outputs": [
        {
          "internalType": "address",
          "name": "",
          "type": "address"
        }
      ],
      "stateMutability": "view",
      "type": "function"
    },
    {
      "inputs": [
        {
          "internalType": "address",
          "name": "token",
          "type": "address"
        }
      ],
      "name": "rescueTokens",
      "outputs": [],
      "stateMutability": "nonpayable",
      "type": "function"
    },
    {
      "inputs": [],
      "name": "returnWallet",
      "outputs": [
        {
          "internalType": "address",
          "name": "",
          "type": "address"
        }
      ],
      "stateMutability": "view",
      "type": "function"
    },
    {
      "inputs": [],
      "name": "tokenOut",
      "outputs": [
        {
          "internalType": "address",
          "name": "",
          "type": "address"
        }
      ],
      "stateMutability": "view",
      "type": "function"
    }
  ],
  "bytecode": "0x61012060405234801562000011575f80fd5b5060405162001649380380620016498339818101604052810190620000379190620003c1565b5f73ffffffffffffffffffffffffffffffffffffffff168573ffffffffffffffffffffffffffffffffffffffff1603620000a8576040517f08c379a00000000000000000000000000000000000000000000000000000000081526004016200009f90620004a3565b60405180910390fd5b5f8411620000ed576040517f08c379a0000000000000000000000000000000000000000000000000000000008152600401620000e49062000511565b60405180910390fd5b5f73ffffffffffffffffffffffffffffffffffffffff168373ffffffffffffffffffffffffffffffffffffffff16036200015e576040517f08c379a000000000000000000000000000000000000000000000000000000000815260040162000155906200057f565b60405180910390fd5b5f73ffffffffffffffffffffffffffffffffffffffff168273ffffffffffffffffffffffffffffffffffffffff1603620001cf576040517f08c379a0000000000000000000000000000000000000000000000000000000008152600401620001c690620005ed565b60405180910390fd5b5f73ffffffffffffffffffffffffffffffffffffffff168173ffffffffffffffffffffffffffffffffffffffff160362000240576040517f08c379a000000000000000000000000000000000000000000000000000000000815260040162000237906200065b565b60405180910390fd5b8473ffffffffffffffffffffffffffffffffffffffff1660808173ffffffffffffffffffffffffffffffffffffffff16815250508360a081815250508273ffffffffffffffffffffffffffffffffffffffff1660c08173ffffffffffffffffffffffffffffffffffffffff16815250508173ffffffffffffffffffffffffffffffffffffffff1660e08173ffffffffffffffffffffffffffffffffffffffff16815250508073ffffffffffffffffffffffffffffffffffffffff166101008173ffffffffffffffffffffffffffffffffffffffff168152505050505050506200067b565b5f80fd5b5f73ffffffffffffffffffffffffffffffffffffffff82169050919050565b5f620003538262000328565b9050919050565b620003658162000347565b811462000370575f80fd5b50565b5f8151905062000383816200035a565b92915050565b5f819050919050565b6200039d8162000389565b8114620003a8575f80fd5b50565b5f81519050620003bb8162000392565b92915050565b5f805f805f60a08688031215620003dd57620003dc62000324565b5b5f620003ec8882890162000373565b9550506020620003ff88828901620003ab565b9450506040620004128882890162000373565b9350506060620004258882890162000373565b9250506080620004388882890162000373565b9150509295509295909350565b5f82825260208201905092915050565b7f496e76616c696420746f6b656e206164647265737300000000000000000000005f82015250565b5f6200048b60158362000445565b9150620004988262000455565b602082019050919050565b5f6020820190508181035f830152620004bc816200047d565b9050919050565b7f416d6f756e74206d7573742062652067726561746572207468616e20300000005f82015250565b5f620004f9601d8362000445565b91506200050682620004c3565b602082019050919050565b5f6020820190508181035f8301526200052a81620004eb565b9050919050565b7f496e76616c696420726563697069656e742061646472657373000000000000005f82015250565b5f6200056760198362000445565b9150620005748262000531565b602082019050919050565b5f6020820190508181035f830152620005988162000559565b9050919050565b7f496e76616c6964206f776e6572206164647265737300000000000000000000005f82015250565b5f620005d560158362000445565b9150620005e2826200059f565b602082019050919050565b5f6020820190508181035f8301526200060681620005c7565b9050919050565b7f496e76616c69642072657475726e2077616c6c657400000000000000000000005f82015250565b5f6200064360158362000445565b915062000650826200060d565b602082019050919050565b5f6020820190508181035f830152620006748162000635565b9050919050565b60805160a05160c05160e05161010051610eef6200075a5f395f81816102f1015281816103a6015281816108f8015281816109ad01528181610a7b0152610b7101525f81816101930152818161043f01528181610a9f0152610b5001525f818161067f0152818161075401528181610a570152610b2f01525f81816105a3015281816105cc015281816106a0015281816107e301528181610ac30152610b0e01525f8181610509015281816106430152818161078b0152818161081a015281816108bc015281816109e401528181610aed0152610bb30152610eef5ff3fe608060405234801561000f575f80fd5b5060043610610090575f3560e01c80637e4a1731116100645780637e4a1731146100f65780638da5cb5b14610114578063aa8c217c14610132578063c3f909d414610150578063d0202d3b1461017357610090565b8062ae3bf81461009457806331a38c89146100b057806361461954146100ce57806366d003ac146100d8575b5f80fd5b6100ae60048036038101906100a99190610c33565b610191565b005b6100b861042d565b6040516100c59190610c78565b60405180910390f35b6100d661043d565b005b6100e0610a55565b6040516100ed9190610ca0565b60405180910390f35b6100fe610a79565b60405161010b9190610ca0565b60405180910390f35b61011c610a9d565b6040516101299190610ca0565b60405180910390f35b61013a610ac1565b6040516101479190610cd1565b60405180910390f35b610158610ae5565b60405161016a96959493929190610cea565b60405180910390f35b61017b610bb1565b6040516101889190610ca0565b60405180910390f35b7f000000000000000000000000000000000000000000000000000000000000000073ffffffffffffffffffffffffffffffffffffffff163373ffffffffffffffffffffffffffffffffffffffff1614610216576040517f5fc483c500000000000000000000000000000000000000000000000000000000815260040160405180910390fd5b5f8173ffffffffffffffffffffffffffffffffffffffff166370a08231306040518263ffffffff1660e01b81526004016102509190610ca0565b602060405180830381865afa15801561026b573d5f803e3d5ffd5b505050506040513d601f19601f8201168201806040525081019061028f9190610d73565b90505f81116102d3576040517f08c379a00000000000000000000000000000000000000000000000000000000081526004016102ca90610df8565b60405180910390fd5b8173ffffffffffffffffffffffffffffffffffffffff1663a9059cbb7f0000000000000000000000000000000000000000000000000000000000000000836040518363ffffffff1660e01b815260040161032e929190610e16565b6020604051808303815f875af115801561034a573d5f803e3d5ffd5b505050506040513d601f19601f8201168201806040525081019061036e9190610e67565b6103a4576040517f90b8ec1800000000000000000000000000000000000000000000000000000000815260040160405180910390fd5b7f000000000000000000000000000000000000000000000000000000000000000073ffffffffffffffffffffffffffffffffffffffff168273ffffffffffffffffffffffffffffffffffffffff167ffb475a842bad10d3800b61bd1a92e716051afba979b124b583bd99a2d1d7bfd5836040516104219190610cd1565b60405180910390a35050565b5f8054906101000a900460ff1681565b7f000000000000000000000000000000000000000000000000000000000000000073ffffffffffffffffffffffffffffffffffffffff163373ffffffffffffffffffffffffffffffffffffffff16146104c2576040517f5fc483c500000000000000000000000000000000000000000000000000000000815260040160405180910390fd5b5f8054906101000a900460ff1615610506576040517f0dc1019700000000000000000000000000000000000000000000000000000000815260040160405180910390fd5b5f7f000000000000000000000000000000000000000000000000000000000000000073ffffffffffffffffffffffffffffffffffffffff166370a08231306040518263ffffffff1660e01b81526004016105609190610ca0565b602060405180830381865afa15801561057b573d5f803e3d5ffd5b505050506040513d601f19601f8201168201806040525081019061059f9190610d73565b90507f000000000000000000000000000000000000000000000000000000000000000081101561062857807f00000000000000000000000000000000000000000000000000000000000000006040517fcf47918100000000000000000000000000000000000000000000000000000000815260040161061f929190610e92565b60405180910390fd5b60015f806101000a81548160ff0219169083151502179055507f000000000000000000000000000000000000000000000000000000000000000073ffffffffffffffffffffffffffffffffffffffff1663a9059cbb7f00000000000000000000000000000000000000000000000000000000000000007f00000000000000000000000000000000000000000000000000000000000000006040518363ffffffff1660e01b81526004016106dc929190610e16565b6020604051808303815f875af11580156106f8573d5f803e3d5ffd5b505050506040513d601f19601f8201168201806040525081019061071c9190610e67565b610752576040517f90b8ec1800000000000000000000000000000000000000000000000000000000815260040160405180910390fd5b7f000000000000000000000000000000000000000000000000000000000000000073ffffffffffffffffffffffffffffffffffffffff167f000000000000000000000000000000000000000000000000000000000000000073ffffffffffffffffffffffffffffffffffffffff167f52ba16c8b985eff690a9de92094bd7486f89340e06e385ffb26de9c6eea384dc7f000000000000000000000000000000000000000000000000000000000000000060405161080f9190610cd1565b60405180910390a35f7f000000000000000000000000000000000000000000000000000000000000000073ffffffffffffffffffffffffffffffffffffffff166370a08231306040518263ffffffff1660e01b81526004016108719190610ca0565b602060405180830381865afa15801561088c573d5f803e3d5ffd5b505050506040513d601f19601f820116820180604052508101906108b09190610d73565b90505f811115610a51577f000000000000000000000000000000000000000000000000000000000000000073ffffffffffffffffffffffffffffffffffffffff1663a9059cbb7f0000000000000000000000000000000000000000000000000000000000000000836040518363ffffffff1660e01b8152600401610935929190610e16565b6020604051808303815f875af1158015610951573d5f803e3d5ffd5b505050506040513d601f19601f820116820180604052508101906109759190610e67565b6109ab576040517f90b8ec1800000000000000000000000000000000000000000000000000000000815260040160405180910390fd5b7f000000000000000000000000000000000000000000000000000000000000000073ffffffffffffffffffffffffffffffffffffffff167f000000000000000000000000000000000000000000000000000000000000000073ffffffffffffffffffffffffffffffffffffffff167fc18c72114b1035d82e287b626d2c81535136aff756f0063ff4f57418d3f78f3b83604051610a489190610cd1565b60405180910390a35b5050565b7f000000000000000000000000000000000000000000000000000000000000000081565b7f000000000000000000000000000000000000000000000000000000000000000081565b7f000000000000000000000000000000000000000000000000000000000000000081565b7f000000000000000000000000000000000000000000000000000000000000000081565b5f805f805f807f00000000000000000000000000000000000000000000000000000000000000007f00000000000000000000000000000000000000000000000000000000000000007f00000000000000000000000000000000000000000000000000000000000000007f00000000000000000000000000000000000000000000000000000000000000007f00000000000000000000000000000000000000000000000000000000000000005f8054906101000a900460ff16955095509550955095509550909192939495565b7f000000000000000000000000000000000000000000000000000000000000000081565b5f80fd5b5f73ffffffffffffffffffffffffffffffffffffffff82169050919050565b5f610c0282610bd9565b9050919050565b610c1281610bf8565b8114610c1c575f80fd5b50565b5f81359050610c2d81610c09565b92915050565b5f60208284031215610c4857610c47610bd5565b5b5f610c5584828501610c1f565b91505092915050565b5f8115159050919050565b610c7281610c5e565b82525050565b5f602082019050610c8b5f830184610c69565b92915050565b610c9a81610bf8565b82525050565b5f602082019050610cb35f830184610c91565b92915050565b5f819050919050565b610ccb81610cb9565b82525050565b5f602082019050610ce45f830184610cc2565b92915050565b5f60c082019050610cfd5f830189610c91565b610d0a6020830188610cc2565b610d176040830187610c91565b610d246060830186610c91565b610d316080830185610c91565b610d3e60a0830184610c69565b979650505050505050565b610d5281610cb9565b8114610d5c575f80fd5b50565b5f81519050610d6d81610d49565b92915050565b5f60208284031215610d8857610d87610bd5565b5b5f610d9584828501610d5f565b91505092915050565b5f82825260208201905092915050565b7f4e6f20746f6b656e7320746f20726573637565000000000000000000000000005f82015250565b5f610de2601383610d9e565b9150610ded82610dae565b602082019050919050565b5f6020820190508181035f830152610e0f81610dd6565b9050919050565b5f604082019050610e295f830185610c91565b610e366020830184610cc2565b9392505050565b610e4681610c5e565b8114610e50575f80fd5b50565b5f81519050610e6181610e3d565b92915050565b5f60208284031215610e7c57610e7b610bd5565b5b5f610e8984828501610e53565b91505092915050565b5f604082019050610ea55f830185610cc2565b610eb26020830184610cc2565b939250505056fea2646970667358221220e103a0aa351eda9937ce1c8b689e85bfafa8e840cafdf6fdd8437391a1213bc364736f6c63430008140033",
  "linkReferences": {},
  "deployedLinkReferences": {}
}