{
  "_format": "hh-sol-artifact-1",
  "contractName": "MainWalletRegistry",
  "sourceName": "src/MainWalletRegistry.sol",
  "abi": [
    {
      "inputs": [],
      "stateMutability": "nonpayable",
      "type": "constructor"
    },
    {
      "inputs": [
        {
          "internalType": "address",
          "name": "owner",
          "type": "address"
        }
      ],
      "name": "OwnableInvalidOwner",
      "type": "error"
    },
    {
      "inputs": [
        {
          "internalType": "address",
          "name": "account",
          "type": "address"
        }
      ],
      "name": "OwnableUnauthorizedAccount",
      "type": "error"
    },
    {
      "anonymous": false,
      "inputs": [
        {
          "indexed": true,
          "internalType": "address",
          "name": "previousOwner",
          "type": "address"
        },
        {
          "indexed": true,
          "internalType": "address",
          "name": "newOwner",
          "type": "address"
        }
      ],
      "name": "OwnershipTransferred",
      "type": "event"
    },
    {
      "anonymous": false,
      "inputs": [
        {
          "indexed": true,
          "internalType": "address",
          "name": "wallet",
          "type": "address"
        }
      ],
      "name": "WalletRegistered",
      "type": "event"
    },
    {
      "anonymous": false,
      "inputs": [
        {
          "indexed": true,
          "internalType": "address",
          "name": "wallet",
          "type": "address"
        }
      ],
      "name": "WalletRemoved",
      "type": "event"
    },
    {
      "inputs": [],
      "name": "getWallets",
      "outputs": [
        {
          "internalType": "address[]",
          "name": "",
          "type": "address[]"
        }
      ],
      "stateMutability": "view",
      "type": "function"
    },
    {
      "inputs": [
        {
          "internalType": "address",
          "name": "wallet",
          "type": "address"
        }
      ],
      "name": "isRegistered",
      "outputs": [
        {
          "internalType": "bool",
          "name": "",
          "type": "bool"
        }
      ],
      "stateMutability": "view",
      "type": "function"
    },
    {
      "inputs": [],
      "name": "owner",
      "outputs": [
        {
          "internalType": "address",
          "name": "",
          "type": "address"
        }
      ],
      "stateMutability": "view",
      "type": "function"
    },
    {
      "inputs": [
        {
          "internalType": "address",
          "name": "wallet",
          "type": "address"
        }
      ],
      "name": "registerMainWallet",
      "outputs": [],
      "stateMutability": "nonpayable",
      "type": "function"
    },
    {
      "inputs": [
        {
          "internalType": "address",
          "name": "wallet",
          "type": "address"
        }
      ],
      "name": "removeMainWallet",
      "outputs": [],
      "stateMutability": "nonpayable",
      "type": "function"
    },
    {
      "inputs": [],
      "name": "renounceOwnership",
      "outputs": [],
      "stateMutability": "nonpayable",
      "type": "function"
    },
    {
      "inputs": [
        {
          "internalType": "address",
          "name": "newOwner",
          "type": "address"
        }
      ],
      "name": "transferOwnership",
      "outputs": [],
      "stateMutability": "nonpayable",
      "type": "function"
    },
    {
      "inputs": [],
      "name": "walletCount",
      "outputs": [
        {
          "internalType": "uint256",
          "name": "",
          "type": "uint256"
        }
      ],
      "stateMutability": "view",
      "type": "function"
    }
  ],
  "bytecode": "0x608060405234801561001057600080fd5b5033600073ffffffffffffffffffffffffffffffffffffffff168173ffffffffffffffffffffffffffffffffffffffff16036100845760006040517f1e4fbdf700000000000000000000000000000000000000000000000000000000815260040161007b919061019e565b60405180910390fd5b6100938161009960201b60201c565b506101b9565b60008060009054906101000a900473ffffffffffffffffffffffffffffffffffffffff169050816000806101000a81548173ffffffffffffffffffffffffffffffffffffffff021916908373ffffffffffffffffffffffffffffffffffffffff1602179055508173ffffffffffffffffffffffffffffffffffffffff168173ffffffffffffffffffffffffffffffffffffffff167f8be0079c531659141344cd1fd0a4f28419497f9722a3daafe3b4186f6b6457e060405160405180910390a35050565b600073ffffffffffffffffffffffffffffffffffffffff82169050919050565b60006101888261015d565b9050919050565b6101988161017d565b82525050565b60006020820190506101b3600083018461018f565b92915050565b610dd7806101c86000396000f3fe608060405234801561001057600080fd5b50600436106100885760003560e01c80638da5cb5b1161005b5780638da5cb5b146100ed578063c3c5a5471461010b578063db7a46051461013b578063f2fde38b1461015957610088565b806307b1b0e81461008d57806329b57c69146100a957806352efc1f9146100c7578063715018a6146100e3575b600080fd5b6100a760048036038101906100a291906109a2565b610175565b005b6100b1610379565b6040516100be91906109e8565b60405180910390f35b6100e160048036038101906100dc91906109a2565b610386565b005b6100eb610645565b005b6100f5610659565b6040516101029190610a12565b60405180910390f35b610125600480360381019061012091906109a2565b610682565b6040516101329190610a48565b60405180910390f35b6101436106d8565b6040516101509190610b21565b60405180910390f35b610173600480360381019061016e91906109a2565b610766565b005b61017d6107ec565b600073ffffffffffffffffffffffffffffffffffffffff168173ffffffffffffffffffffffffffffffffffffffff16036101ec576040517f08c379a00000000000000000000000000000000000000000000000000000000081526004016101e390610ba0565b60405180910390fd5b600160008273ffffffffffffffffffffffffffffffffffffffff1673ffffffffffffffffffffffffffffffffffffffff16815260200190815260200160002060009054906101000a900460ff1615610279576040517f08c379a000000000000000000000000000000000000000000000000000000000815260040161027090610c0c565b60405180910390fd5b60018060008373ffffffffffffffffffffffffffffffffffffffff1673ffffffffffffffffffffffffffffffffffffffff16815260200190815260200160002060006101000a81548160ff0219169083151502179055506002819080600181540180825580915050600190039060005260206000200160009091909190916101000a81548173ffffffffffffffffffffffffffffffffffffffff021916908373ffffffffffffffffffffffffffffffffffffffff1602179055508073ffffffffffffffffffffffffffffffffffffffff167faa2be1d5cb66e5596a57cf0d001b117127b2873efd19309d4aa609784c16124860405160405180910390a250565b6000600280549050905090565b61038e6107ec565b600160008273ffffffffffffffffffffffffffffffffffffffff1673ffffffffffffffffffffffffffffffffffffffff16815260200190815260200160002060009054906101000a900460ff1661041a576040517f08c379a000000000000000000000000000000000000000000000000000000000815260040161041190610c78565b60405180910390fd5b6000600160008373ffffffffffffffffffffffffffffffffffffffff1673ffffffffffffffffffffffffffffffffffffffff16815260200190815260200160002060006101000a81548160ff02191690831515021790555060005b6002805490508110156105fe578173ffffffffffffffffffffffffffffffffffffffff16600282815481106104ad576104ac610c98565b5b9060005260206000200160009054906101000a900473ffffffffffffffffffffffffffffffffffffffff1673ffffffffffffffffffffffffffffffffffffffff16036105eb57600260016002805490506105079190610cf6565b8154811061051857610517610c98565b5b9060005260206000200160009054906101000a900473ffffffffffffffffffffffffffffffffffffffff166002828154811061055757610556610c98565b5b9060005260206000200160006101000a81548173ffffffffffffffffffffffffffffffffffffffff021916908373ffffffffffffffffffffffffffffffffffffffff16021790555060028054806105b1576105b0610d2a565b5b6001900381819060005260206000200160006101000a81549073ffffffffffffffffffffffffffffffffffffffff021916905590556105fe565b80806105f690610d59565b915050610475565b508073ffffffffffffffffffffffffffffffffffffffff167f404a5a6aec5266b19b23d6c12b580262d12a26418278655bc87ce175b58cb67960405160405180910390a250565b61064d6107ec565b6106576000610873565b565b60008060009054906101000a900473ffffffffffffffffffffffffffffffffffffffff16905090565b6000600160008373ffffffffffffffffffffffffffffffffffffffff1673ffffffffffffffffffffffffffffffffffffffff16815260200190815260200160002060009054906101000a900460ff169050919050565b6060600280548060200260200160405190810160405280929190818152602001828054801561075c57602002820191906000526020600020905b8160009054906101000a900473ffffffffffffffffffffffffffffffffffffffff1673ffffffffffffffffffffffffffffffffffffffff1681526020019060010190808311610712575b5050505050905090565b61076e6107ec565b600073ffffffffffffffffffffffffffffffffffffffff168173ffffffffffffffffffffffffffffffffffffffff16036107e05760006040517f1e4fbdf70000000000000000000000000000000000000000000000000000000081526004016107d79190610a12565b60405180910390fd5b6107e981610873565b50565b6107f4610937565b73ffffffffffffffffffffffffffffffffffffffff16610812610659565b73ffffffffffffffffffffffffffffffffffffffff161461087157610835610937565b6040517f118cdaa70000000000000000000000000000000000000000000000000000000081526004016108689190610a12565b60405180910390fd5b565b60008060009054906101000a900473ffffffffffffffffffffffffffffffffffffffff169050816000806101000a81548173ffffffffffffffffffffffffffffffffffffffff021916908373ffffffffffffffffffffffffffffffffffffffff1602179055508173ffffffffffffffffffffffffffffffffffffffff168173ffffffffffffffffffffffffffffffffffffffff167f8be0079c531659141344cd1fd0a4f28419497f9722a3daafe3b4186f6b6457e060405160405180910390a35050565b600033905090565b600080fd5b600073ffffffffffffffffffffffffffffffffffffffff82169050919050565b600061096f82610944565b9050919050565b61097f81610964565b811461098a57600080fd5b50565b60008135905061099c81610976565b92915050565b6000602082840312156109b8576109b761093f565b5b60006109c68482850161098d565b91505092915050565b6000819050919050565b6109e2816109cf565b82525050565b60006020820190506109fd60008301846109d9565b92915050565b610a0c81610964565b82525050565b6000602082019050610a276000830184610a03565b92915050565b60008115159050919050565b610a4281610a2d565b82525050565b6000602082019050610a5d6000830184610a39565b92915050565b600081519050919050565b600082825260208201905092915050565b6000819050602082019050919050565b610a9881610964565b82525050565b6000610aaa8383610a8f565b60208301905092915050565b6000602082019050919050565b6000610ace82610a63565b610ad88185610a6e565b9350610ae383610a7f565b8060005b83811015610b14578151610afb8882610a9e565b9750610b0683610ab6565b925050600181019050610ae7565b5085935050505092915050565b60006020820190508181036000830152610b3b8184610ac3565b905092915050565b600082825260208201905092915050565b7f496e76616c696420616464726573730000000000000000000000000000000000600082015250565b6000610b8a600f83610b43565b9150610b9582610b54565b602082019050919050565b60006020820190508181036000830152610bb981610b7d565b9050919050565b7f416c726561647920726567697374657265640000000000000000000000000000600082015250565b6000610bf6601283610b43565b9150610c0182610bc0565b602082019050919050565b60006020820190508181036000830152610c2581610be9565b9050919050565b7f4e6f742072656769737465726564000000000000000000000000000000000000600082015250565b6000610c62600e83610b43565b9150610c6d82610c2c565b602082019050919050565b60006020820190508181036000830152610c9181610c55565b9050919050565b7f4e487b7100000000000000000000000000000000000000000000000000000000600052603260045260246000fd5b7f4e487b7100000000000000000000000000000000000000000000000000000000600052601160045260246000fd5b6000610d01826109cf565b9150610d0c836109cf565b9250828203905081811115610d2457610d23610cc7565b5b92915050565b7f4e487b7100000000000000000000000000000000000000000000000000000000600052603160045260246000fd5b6000610d64826109cf565b91507fffffffffffffffffffffffffffffffffffffffffffffffffffffffffffffffff8203610d9657610d95610cc7565b5b60018201905091905056fea26469706673582212202bad6c68d0eeee65ffb52229757e4238247591d2ebcbae458cd738ddc2bfacf264736f6c63430008140033",
  "linkReferences": {},
  "deployedLinkReferences": {}
}